{
  "_format": "hh-sol-artifact-1",
  "contractName": "Pemilihan",
  "sourceName": "contracts/Pemilihan.sol",
  "abi": [
    {
      "anonymous": false,
      "inputs": [
        {
          "indexed": false,
          "internalType": "string",
          "name": "nama",
          "type": "string"
        }
      ],
      "name": "addkandidat",
      "type": "event"
    },
    {
      "anonymous": false,
      "inputs": [
        {
          "indexed": false,
          "internalType": "uint256",
          "name": "id",
          "type": "uint256"
        },
        {
          "indexed": false,
          "internalType": "string",
          "name": "nama",
          "type": "string"
        },
        {
          "indexed": false,
          "internalType": "uint256",
          "name": "count",
          "type": "uint256"
        }
      ],
      "name": "pemilihanupdated",
      "type": "event"
    },
    {
      "inputs": [
        {
          "internalType": "uint256",
          "name": "_idKandidat",
          "type": "uint256"
        }
      ],
      "name": "Vote",
      "outputs": [],
      "stateMutability": "nonpayable",
      "type": "function"
    },
    {
      "inputs": [
        {
          "internalType": "string",
          "name": "nama",
          "type": "string"
        }
      ],
      "name": "addKandidat",
      "outputs": [],
      "stateMutability": "nonpayable",
      "type": "function"
    },
    {
      "inputs": [],
      "name": "jumlahKandidat",
      "outputs": [
        {
          "internalType": "uint256",
          "name": "",
          "type": "uint256"
        }
      ],
      "stateMutability": "view",
      "type": "function"
    },
    {
      "inputs": [
        {
          "internalType": "uint256",
          "name": "",
          "type": "uint256"
        }
      ],
      "name": "kandidat",
      "outputs": [
        {
          "internalType": "uint256",
          "name": "id",
          "type": "uint256"
        },
        {
          "internalType": "string",
          "name": "nama",
          "type": "string"
        },
        {
          "internalType": "uint256",
          "name": "count",
          "type": "uint256"
        }
      ],
      "stateMutability": "view",
      "type": "function"
    },
    {
      "inputs": [
        {
          "internalType": "address",
          "name": "",
          "type": "address"
        }
      ],
      "name": "votedornot",
      "outputs": [
        {
          "internalType": "bool",
          "name": "",
          "type": "bool"
        }
      ],
      "stateMutability": "view",
      "type": "function"
    }
  ],
  "bytecode": "0x6080604052348015600f57600080fd5b50610dbd8061001f6000396000f3fe608060405234801561001057600080fd5b50600436106100575760003560e01c8063089ba5111461005c57806308b7bfd81461007a5780631bc5702214610096578063657c3ef1146100c6578063dcd6a5cd146100f8575b600080fd5b610064610114565b60405161007191906104ad565b60405180910390f35b610094600480360381019061008f9190610622565b61011a565b005b6100b060048036038101906100ab91906106c9565b6101e0565b6040516100bd9190610711565b60405180910390f35b6100e060048036038101906100db9190610758565b610200565b6040516100ef93929190610804565b60405180910390f35b610112600480360381019061010d9190610758565b6102b2565b005b60005481565b60008081548092919061012c90610871565b919050555060405180606001604052806000548152602001828152602001600081525060016000805481526020019081526020016000206000820151816000015560208201518160010190816101829190610ac5565b50604082015181600201559050507fba2eeede678b50da694a99f284ed41bb960fa9213653511e9b1362d10993b74d60016000805481526020019081526020016000206001016040516101d59190610c1b565b60405180910390a150565b60026020528060005260406000206000915054906101000a900460ff1681565b6001602052806000526040600020600091509050806000015490806001018054610229906108e8565b80601f0160208091040260200160405190810160405280929190818152602001828054610255906108e8565b80156102a25780601f10610277576101008083540402835291602001916102a2565b820191906000526020600020905b81548152906001019060200180831161028557829003601f168201915b5050505050908060020154905083565b600260003373ffffffffffffffffffffffffffffffffffffffff1673ffffffffffffffffffffffffffffffffffffffff16815260200190815260200160002060009054906101000a900460ff161561033f576040517f08c379a000000000000000000000000000000000000000000000000000000000815260040161033690610c89565b60405180910390fd5b6000600160008381526020019081526020016000206000015411801561036757506000548111155b6103a6576040517f08c379a000000000000000000000000000000000000000000000000000000000815260040161039d90610cf5565b60405180910390fd5b600180600083815260200190815260200160002060020160008282546103cc9190610d15565b925050819055506001600260003373ffffffffffffffffffffffffffffffffffffffff1673ffffffffffffffffffffffffffffffffffffffff16815260200190815260200160002060006101000a81548160ff0219169083151502179055507fc21de425f0027fe24b12124cb7bee46e9d0436a360a0fb465ec77bc2d8d30d238160016000848152602001908152602001600020600101600160008581526020019081526020016000206002015460405161048993929190610d49565b60405180910390a150565b6000819050919050565b6104a781610494565b82525050565b60006020820190506104c2600083018461049e565b92915050565b6000604051905090565b600080fd5b600080fd5b600080fd5b600080fd5b6000601f19601f8301169050919050565b7f4e487b7100000000000000000000000000000000000000000000000000000000600052604160045260246000fd5b61052f826104e6565b810181811067ffffffffffffffff8211171561054e5761054d6104f7565b5b80604052505050565b60006105616104c8565b905061056d8282610526565b919050565b600067ffffffffffffffff82111561058d5761058c6104f7565b5b610596826104e6565b9050602081019050919050565b82818337600083830152505050565b60006105c56105c084610572565b610557565b9050828152602081018484840111156105e1576105e06104e1565b5b6105ec8482856105a3565b509392505050565b600082601f830112610609576106086104dc565b5b81356106198482602086016105b2565b91505092915050565b600060208284031215610638576106376104d2565b5b600082013567ffffffffffffffff811115610656576106556104d7565b5b610662848285016105f4565b91505092915050565b600073ffffffffffffffffffffffffffffffffffffffff82169050919050565b60006106968261066b565b9050919050565b6106a68161068b565b81146106b157600080fd5b50565b6000813590506106c38161069d565b92915050565b6000602082840312156106df576106de6104d2565b5b60006106ed848285016106b4565b91505092915050565b60008115159050919050565b61070b816106f6565b82525050565b60006020820190506107266000830184610702565b92915050565b61073581610494565b811461074057600080fd5b50565b6000813590506107528161072c565b92915050565b60006020828403121561076e5761076d6104d2565b5b600061077c84828501610743565b91505092915050565b600081519050919050565b600082825260208201905092915050565b60005b838110156107bf5780820151818401526020810190506107a4565b60008484015250505050565b60006107d682610785565b6107e08185610790565b93506107f08185602086016107a1565b6107f9816104e6565b840191505092915050565b6000606082019050610819600083018661049e565b818103602083015261082b81856107cb565b905061083a604083018461049e565b949350505050565b7f4e487b7100000000000000000000000000000000000000000000000000000000600052601160045260246000fd5b600061087c82610494565b91507fffffffffffffffffffffffffffffffffffffffffffffffffffffffffffffffff82036108ae576108ad610842565b5b600182019050919050565b7f4e487b7100000000000000000000000000000000000000000000000000000000600052602260045260246000fd5b6000600282049050600182168061090057607f821691505b602082108103610913576109126108b9565b5b50919050565b60008190508160005260206000209050919050565b60006020601f8301049050919050565b600082821b905092915050565b60006008830261097b7fffffffffffffffffffffffffffffffffffffffffffffffffffffffffffffffff8261093e565b610985868361093e565b95508019841693508086168417925050509392505050565b6000819050919050565b60006109c26109bd6109b884610494565b61099d565b610494565b9050919050565b6000819050919050565b6109dc836109a7565b6109f06109e8826109c9565b84845461094b565b825550505050565b600090565b610a056109f8565b610a108184846109d3565b505050565b5b81811015610a3457610a296000826109fd565b600181019050610a16565b5050565b601f821115610a7957610a4a81610919565b610a538461092e565b81016020851015610a62578190505b610a76610a6e8561092e565b830182610a15565b50505b505050565b600082821c905092915050565b6000610a9c60001984600802610a7e565b1980831691505092915050565b6000610ab58383610a8b565b9150826002028217905092915050565b610ace82610785565b67ffffffffffffffff811115610ae757610ae66104f7565b5b610af182546108e8565b610afc828285610a38565b600060209050601f831160018114610b2f5760008415610b1d578287015190505b610b278582610aa9565b865550610b8f565b601f198416610b3d86610919565b60005b82811015610b6557848901518255600182019150602085019450602081019050610b40565b86831015610b825784890151610b7e601f891682610a8b565b8355505b6001600288020188555050505b505050505050565b60008154610ba4816108e8565b610bae8186610790565b94506001821660008114610bc95760018114610bdf57610c12565b60ff198316865281151560200286019350610c12565b610be885610919565b60005b83811015610c0a57815481890152600182019150602081019050610beb565b808801955050505b50505092915050565b60006020820190508181036000830152610c358184610b97565b905092915050565b7f616e64612074656c6168206d656d696c69680000000000000000000000000000600082015250565b6000610c73601283610790565b9150610c7e82610c3d565b602082019050919050565b60006020820190508181036000830152610ca281610c66565b9050919050565b7f696420746964616b20646974656d756b616e0000000000000000000000000000600082015250565b6000610cdf601283610790565b9150610cea82610ca9565b602082019050919050565b60006020820190508181036000830152610d0e81610cd2565b9050919050565b6000610d2082610494565b9150610d2b83610494565b9250828201905080821115610d4357610d42610842565b5b92915050565b6000606082019050610d5e600083018661049e565b8181036020830152610d708185610b97565b9050610d7f604083018461049e565b94935050505056fea264697066735822122044fc19c201d07f91a79095241fa5260fad538d80016609212f0b9acf24ba96de64736f6c634300081c0033",
  "linkReferences": {},
  "deployedLinkReferences": {}
}